:100000000C9434000C9446000C9446000C9446006A
:100010000C9446000C9446000C9446000C94460048
:100020000C9446000C9446000C9446000C94460038
:100030000C9446000C9446000C9446000C94460028
:100040000C9410010C9446000C94DD000C944600B6
:100050000C9446000C9446000C9446000C94460008
:100060000C9446000C94460011241FBECFEFD4E040
:10007000DEBFCDBF21E0A0E0B1E001C01D92A730FE
:10008000B207E1F70E94B9000C945C010C940000E7
:1000900085B5826085BDEEE6F0E080818160808379
:1000A000A89A16BC0895809104018A3F51F41092D9
:1000B0000301109202019091050181E0892780934C
:1000C0000501809104018C3F51F4109203011092BC
:1000D00002019091050182E08927809305018091BA
:1000E0000401883F19F59091050184E089278093E8
:1000F0000501809102019091030101969093030103
:1001000080930201059709F4299A80910201909148
:100110000301439709F4299880910201909103010A
:10012000489721F4109203011092020108958FE084
:100130008093C4001092C50086E08093C20088E9D5
:100140008093C100089584B18F6284B980E58CBD2D
:10015000089528988EBD0DB407FEFDCF289A2898E3
:100160000895E0ECF0E0908195FFFDCF8093C6000C
:1001700008955098589A84B1836084B987E087B90C
:100180003B98439A0E9497000E94A3000E94480057
:10019000C1E078940E94530080910501809306018C
:1001A000809106010E94A90010920601C8B93399F6
:1001B000F0CF8CEF0E94B100ECCF1F920F920FB6E0
:1001C0000F9211248F939F938091C6008093040116
:1001D00080910401883FE9F480910201909103012C
:1001E00001969093030180930201059709F4299ADF
:1001F0008091020190910301439709F4299880911D
:10020000020190910301489721F41092030110928A
:1002100002019F918F910F900FBE0F901F90189524
:100220001F920F920FB60F9211242F933F934F936B
:100230005F936F937F938F939F93AF93BF93EF934E
:10024000FF9318B8339905C08AEF0E94B10080E08F
:1002500004C080910101811108C0909100019F5F4D
:10026000983199F41092000112C08F5F823519F015
:100270008093010102C01092010180910001873139
:1002800011F4299A08C0299806C0909300018F5F45
:1002900080930101F2CFFF91EF91BF91AF919F91B8
:1002A0008F917F916F915F914F913F912F910F901F
:0C02B0000FBE0F901F901895F894FFCF20
:00000001FF
