:100000000C9434000C9446000C9446000C9446006A
:100010000C9446000C9446000C9446000C94460048
:100020000C9446000C9476000C9446000C94460008
:100030000C9446000C9446000C9446000C94460028
:100040000C9446000C9446000C9446000C94460018
:100050000C9446000C9446000C9446000C94460008
:100060000C9446000C94460011241FBECFEFD4E040
:10007000DEBFCDBF21E0A0E0B1E001C01D92A23003
:10008000B207E1F70E9461000C948D000C9400000F
:10009000E1EBF0E0808183608083E0E7F0E0808145
:1000A000816080838FEF8093B2007894089584B14B
:1000B000876084B90895EAE7F0E08081866A8083EA
:1000C00008950E9457000E945B000E94480024E0AF
:1000D00080910001909101010A97D1F785B18227A3
:1000E00085B91092010110920001F2CF1F920F9278
:1000F0000FB60F9211248F939F93809100019091DE
:100100000101019690930101809300019F918F91CD
:0E0110000F900FBE0F901F901895F894FFCF20
:00000001FF
