:100000000C9434000C9451000C9451000C94510049
:100010000C94E6000C9451000C9451000C94510087
:100020000C9451000C9451000C9451000C9451000C
:100030000C9451000C9451000C9451000C945100FC
:100040000C94A9000C9451000C9451000C94510094
:100050000C9451000C9451000C9451000C945100DC
:100060000C9451000C94510011241FBECFEFD4E02A
:10007000DEBFCDBF11E0A0E0B1E0E6E3F2E002C0F8
:1000800005900D92A230B107D9F711E0A2E0B1E0DE
:1000900001C01D92A630B107E1F70E948B000C94BD
:1000A00019010C94000084B18F6284B980E58CBD85
:1000B000089528988EBD0DB407FEFDCF289A289884
:1000C000089533990BC08FEC97E00197F1F700C0CA
:1000D000000081E0339B03C080E0089580E0089534
:1000E0001092040111C018B898B180910401892BB5
:1000F00088B98FEC97E00197F1F700C0000080917C
:1001000004018F5F8093040180910401883058F3CB
:100110008091050108950E9453008FEF8AB987B13D
:10012000876087B987B1877C87B988B1886388B9C8
:1001300080916800826080936800D99A80916C00F9
:10014000806380936C007894809100010E94590034
:10015000FBCF1F920F920FB60F9211242F933F9354
:100160008F939F93F894809103018823D1F4809119
:100170000201880F8093020180910201882319F403
:1001800081E0809302012091020136B181E090E08C
:1001900002C0880F991F3A95E2F7809582238093D9
:1001A0000201809103018F5F80930301809103011D
:1001B000803110F01092030178949F918F913F91BC
:1001C0002F910F900FBE0F901F9018951F920F92B6
:1001D0000FB60F9211248F939F93F894809103018F
:1001E0008F5F80930301809103018832D1F43399AA
:1001F0000AC080910001982F9F5F909300018F3F6C
:1002000011F08091000134990AC080910001982F6B
:10021000915090930001882311F080910001109279
:10022000030178949F918F910F900FBE0F901F90B4
:060230001895F894FFCFC1
:020236000100C5
:00000001FF
