:100000000C9434000C9446000C9446000C9446006A
:100010000C9446000C9446000C9446000C94460048
:100020000C9446000C9446000C9446000C94460038
:100030000C9446000C9446000C9446000C94460028
:100040000C9459000C9446000C9446000C94460005
:100050000C9446000C9446000C9446000C94460008
:100060000C9446000C94460011241FBECFEFD4E040
:10007000DEBFCDBF11E0A0E0B1E001C01D92A13014
:10008000B107E1F70E9453000C946B000C94000040
:1000900085B5826085BDEEE6F0E080818160808379
:1000A000A89A16BC08950E94480084B1826184B960
:1000B000FFCF1F920F920FB60F9211248F939F9331
:1000C00085B192E0892785B99F918F910F900FBEDE
:0A00D0000F901F901895F894FFCFD1
:00000001FF
