:100000000C9434000C9446000C9446000C9446006A
:100010000C9446000C9446000C9446000C94460048
:100020000C9446000C9446000C9446000C94460038
:100030000C9446000C9446000C9446000C94460028
:100040000C9446000C9446000C9448000C94460016
:100050000C9446000C9446000C9446000C94460008
:100060000C9446000C94460011241FBECFEFD4E040
:10007000DEBFCDBF11E0A0E0B1E001C01D92A33012
:10008000B107E1F70E9486000C948D000C940000EB
:100090001F920F920FB60F9211248F939F9380910E
:1000A00002018F5F809302018091C600883F81F436
:1000B000809100019091010101969093010180933C
:1000C00000018831910521F4109201011092000184
:1000D00080910201843631F485B192E0892785B997
:1000E000109202019F918F910F900FBE0F901F9061
:1000F00018958FE18093C4001092C50086E4809328
:10010000C20080E98093C100789408955098789453
:0E0110008FEF84B90E947900FFCFF894FFCFE3
:00000001FF
