:100000000C9434000C9451000C9451000C94510049
:100010000C9470000C9451000C9451000C945100FD
:100020000C9451000C9451000C9451000C9451000C
:100030000C9451000C9451000C9451000C945100FC
:100040000C9428010C9451000C9451000C94510014
:100050000C9451000C9451000C9451000C945100DC
:100060000C9451000C94510011241FBECFEFD4E02A
:10007000DEBFCDBF11E0A0E0B1E0E2E8F3E002C0F6
:1000800005900D92A430B107D9F721E0A4E0B1E0CA
:1000900001C01D92AE30B207E1F70E941B010C9423
:1000A000BF010C940000E8E6F0E08081826080836C
:1000B000D99AECE6F0E080818063808308952091F6
:1000C00001013091020140E050E06EE077E287E00C
:1000D00090E00E949D01309307012093060108954E
:1000E0001F920F920FB60F9211242F933F934F93AD
:1000F0005F936F937F938F939F93AF93BF93EF9390
:10010000FF9396B180910D018230C9F1833009F4DB
:1001100041C08130D9F094FF04C082E080930D018A
:1001200044C095FF42C081E080930D0180910101A0
:10013000909102018C3221E0920728F4019690936D
:100140000201809301010E945F002FC094FF04C050
:1001500083E080930D0129C095FD27C010920D0109
:1001600080910101909102018F31910528F0019752
:1001700090930201809301010E945F0016C094FDDC
:1001800003C010920D0111C095FF0FC083E0809352
:100190000D010BC094FD04C081E080930D0105C0EA
:1001A00095FD03C082E080930D01FF91EF91BF9117
:1001B000AF919F918F917F916F915F914F913F91FF
:1001C0002F910F900FBE0F901F90189580910A01EC
:1001D00080930C0180910A012091040190E002C0FB
:1001E000959587952A95E2F780FF02C0299A01C06C
:1001F000299880910401883010F0109204018091B8
:100200000C019091000161E089270E9476018EB572
:10021000809580930B018091050120910B019091B5
:100220000B019093050190910A0180958223892703
:1002300080930A0108950E946A010E9493010E941E
:1002400053000E945F00219A78940E94E600FDCF3F
:100250001F920F920FB60F9211242F933F938F93FB
:100260009F9329988091080190910901892B89F425
:1002700080910001880F809300018091000181111D
:1002800003C081E080930001809104018F5F80931F
:100290000401809108019091090101969093090150
:1002A0008093080120910801309109018091060195
:1002B000909107018217930720F410920901109280
:1002C00008019F918F913F912F910F900FBE0F903A
:1002D0001F90189584B18F6284B987B1866087B901
:1002E00024982C982A9A80E58CBD089548B121E085
:1002F00030E0F90102C0EE0FFF1F6A95E2F7BF017F
:100300009E2F9095292F242328B98EBD0DB407FE6A
:10031000FDCF88B1682B68B988B1982398B9429805
:10032000429A8EB5089585B5816085BDEEE6F0E010
:10033000808181608083A89A0895A1E21A2EAA1B69
:10034000BB1BFD010DC0AA1FBB1FEE1FFF1FA21785
:10035000B307E407F50720F0A21BB30BE40BF50B82
:10036000661F771F881F991F1A9469F7609570950B
:10037000809590959B01AC01BD01CF010895F89443
:02038000FFCFAD
:0403820001780000FE
:00000001FF
