:100000000C9434000C9487010C9451000C94510012
:100010000C94C7010C9451000C9451000C945100A5
:100020000C9451000C9451000C9451000C9451000C
:100030000C9451000C9451000C9451000C945100FC
:100040000C94BF020C9451000C9451000C9451007C
:100050000C9451000C9451000C9451000C945100DC
:100060000C9451000C94510011241FBECFEFD4E02A
:10007000DEBFCDBF11E0A0E0B1E0E0EBF7E002C0F1
:1000800005900D92A235B107D9F721E0A2E5B1E0C4
:1000900001C01D92A036B207E1F70E9487020C94BE
:1000A000D6030C9400005F9888230CF45F9A5E9846
:1000B00086FD5E9A5D9885FD5D9A5C9884FD5C9AEC
:1000C0002E9A82E08A95F1F700C02E9882E08A95F8
:1000D000F1F700C00895CF93C82F2F9A2E980E9451
:1000E00053008C2F8295807F0E945300CF910895FA
:1000F0000F931F93CF93DF9300D0CDB7DEB78C0162
:100100001A821982E981FA81E80FF91F8081882318
:10011000B9F0E981FA81E00FF11F80810E946B0044
:1001200089819A8101969A83898385ED8A95F1F771
:100130000000E981FA81E00FF11F80818111E9CF90
:100140000F900F90DF91CF911F910F910895CF9352
:10015000C82F2F982E980E9453008C2F8295807F55
:100160000E945300CF9108952FEF80E792E0215035
:1001700080409040E1F700C000002F982E9880E367
:100180000E9453008FE19EE40197F1F700C0000048
:1001900080E30E9453008FE891E00197F1F700C0DF
:1001A000000080E30E9453008FE891E00197F1F78F
:1001B00000C0000088E20E94530095ED9A95F1F787
:1001C000000088E20E94A70025ED2A95F1F70000C3
:1001D00088E00E94A70085ED8A95F1F7000081E094
:1001E0000E94A7008FE39FE10197F1F700C0000094
:1001F00086E00E94A70095ED9A95F1F700008CE04B
:100200000E94A70025ED2A95F1F700000895579A5E
:10021000569A559A549A269A279A0E94B40081E1D8
:1002200091E00E94780080EC0E94A70085ED8A95FD
:10023000F1F7000080E091E00E9478000895E8E680
:10024000F0E0808182608083D99AECE6F0E08081E2
:100250008063808308950F931F93CF93DF93CDB76F
:10026000DEB7A0970FB6F894DEBF0FBECDBF8C01EE
:10027000CB0140E1BE016F5F7F4F0E94A103FE01F1
:100280003196DE0151969E012E5E3F4F81918D93F6
:10029000E217F307D9F780E80E94A70085ED8A9559
:1002A000F1F70000C8010E94780080EC0E94A700CE
:1002B00085ED8A95F1F70000CE0141960E94780005
:1002C000A0960FB6F894DEBF0FBECDBFDF91CF91E1
:1002D0001F910F91089580E80E94A70085ED8A95EF
:1002E000F1F7000081E00E94A70080EC0E94A700C7
:1002F00085ED8A95F1F7000081E00E94A70080E873
:100300000E94A70085ED8A95F1F7000008951F92DD
:100310000F920FB60F9211242F938F939F9380917A
:100320005201209155019091520190935501909165
:100330005F018223892780935F0190915F0181E0B3
:10034000911180E080935F018AEF86BD95B182E0D4
:10035000892785B910925A01109259019F918F9166
:100360002F910F900FBE0F901F90189520914F0165
:100370003091500140E050E06EE077E287E090E09D
:100380000E947F03309358012093570108951F92D4
:100390000F920FB60F9211242F933F934F935F93B9
:1003A0006F937F938F939F93AF93BF93EF93FF933D
:1003B00096B180915E018230C1F1833009F440C072
:1003C0008130D9F094FF04C082E080935E0143C085
:1003D00095FF41C081E080935E0180914F01909133
:1003E00050018F3F2FE0920728F40196909350011F
:1003F00080934F010E94B6012EC094FF04C083E099
:1004000080935E0128C095FD26C010925E01809108
:100410004F0190915001009729F00197909350015E
:1004200080934F010E94B60116C094FD03C0109244
:100430005E0111C095FF0FC083E080935E010BC089
:1004400094FD04C081E080935E0105C095FD03C06A
:1004500082E080935E0160914F017091500182E2D1
:1004600091E00E942B01FF91EF91BF91AF919F917D
:100470008F917F916F915F914F913F912F910F904D
:100480000FBE0F901F901895CF93DF93623019F035
:10049000C0E0D0ED02C0C0E0D0E5C82BD92BC80F1A
:1004A000D91F40E063E08D2F0E94570341E063E0D5
:1004B0008C2F0E945703DF91CF91089580915B01AB
:1004C00080935D0180915D0190914E0140E061E07B
:1004D00089270E9457038EB5809580935C01809197
:1004E000560120915C0190915C019093560190918E
:1004F0005B0180958223892780935B01E091540101
:10050000F0E0EA5DFE4F808180935B0108958AB13F
:10051000806F8AB952985A9A219AE89A0E944B039E
:100520000E9475030E941F010E94B6010E940701EC
:10053000789410E0C1E0D0E0F12C00E00AC010E0B7
:100540002196C03583ECD80721F40E946B01CF2D92
:10055000D02F0E945E0280914E01813089F71F5F8B
:10056000183071F7809154018F5F8093540180910E
:100570005401883020F31092540110E0E1CF1F9213
:100580000F920FB60F9211242F933F934F935F93C7
:100590006F937F938F939F93AF93BF93EF93FF934B
:1005A00080915F01811103C081E080934E018091B1
:1005B0005F01882309F45EC08091590190915A012E
:1005C000892B09F03FC0299880914E01880F8093B4
:1005D0004E0180914E01811103C081E080934E0154
:1005E000E0915301F0E0EE0FFF1FE25CFE4F8081CF
:1005F000918161E00E944402E0915301F0E0EE0F2E
:10060000FF1FE25DFE4F8081918162E00E94440203
:1006100080915D012091530190E002C095958795EE
:100620002A95E2F780FF02C0299A01C0299880919B
:1006300053018F5F8093530180915301883010F0F4
:10064000109253018091590190915A010196909313
:100650005A01809359012091590130915A0180919A
:100660005701909158018217930720F410925A0174
:1006700010925901FF91EF91BF91AF919F918F918E
:100680007F916F915F914F913F912F910F900FBE8E
:100690000F901F90189584B18F6284B987B18E60D6
:1006A00087B924982C982A9A80E58CBD08956130EA
:1006B00021F44198429A439A05C0633019F4439853
:1006C0004298419A8EBD0DB407FEFDCF613029F4EA
:1006D000419A41984298429A06C0633021F44423DB
:1006E00011F0439A43988EB5089585B5816085BD14
:1006F000EEE6F0E0808181608083A89A0895A1E20F
:100700001A2EAA1BBB1BFD010DC0AA1FBB1FEE1F8B
:10071000FF1FA217B307E407F50720F0A21BB30BD6
:10072000E40BF50B661F771F881F991F1A9469F752
:1007300060957095809590959B01AC01BD01CF01AE
:100740000895BB274A3031F4992322F4BDE29095F5
:1007500081959F4F0C94AD03BB27FB015527AA271A
:10076000880F991FAA1FA41710F0A41B839550513E
:10077000B9F7A05DAA3308F0A95DA193009779F7B6
:10078000B111B1931192CB010C94C603DC01FC01B1
:10079000672F71917723E1F7329704C07C916D93B5
:1007A00070836291AE17BF07C8F30895F894FFCF26
:1007B0005F517561642053657175656E6365725F25
:1007C000005175617469656E742D50524F544F5FBE
:1007D000310042504D00D2A489FF18557A016400BF
:1007E000FC08DC0F01002C01FA0F0A00B004001015
:1007F00014050000D0071400C800D007B80B01781A
:020800000000F6
:00000001FF
