S01700004763634170706C69636174696F6E332E7372656359
S11300000C9434000C9446000C9446000C94460066
S11300100C9446000C9446000C9446000C94460044
S11300200C9446000C9446000C9446000C94460034
S11300300C9446000C9446000C9446000C94460024
S11300400C9446000C9446000C9446000C94460014
S11300500C9446000C9446000C9446000C94460004
S11300600C9446000C94460011241FBECFEFD4E03C
S1130070DEBFCDBF21E0A0E0B1E001C01D92A13000
S1130080B207E1F70E9461000C9475000C94000023
S113009084B18F6284B987B1866087B980E58CBDED
S11300A0089541988EBD0DB407FEFDCF419A419845
S11300B0089542980DB407FEFDCF429A42988EB53A
S11300C008950E9448000E94590080930001809185
S11300D000010E9451002FE785EB91E02150804000
S11100E09040E1F700C00000EECFF894FFCF8F
S9030000FC
