:100000000C9434000C9446000C9446000C9446006A
:100010000C9446000C9446000C9446000C94460048
:100020000C9446000C9446000C9446000C94460038
:100030000C9446000C9446000C9446000C94460028
:100040000C9490000C9446000C9446000C944600CE
:100050000C9446000C9446000C9446000C94460008
:100060000C9446000C94460011241FBECFEFD4E040
:10007000DEBFCDBF21E0A0E0B1E001C01D92A43001
:10008000B207E1F70E9448000C94B5000C94000000
:1000900085B5816085BDEEE6F0E08081816080837A
:1000A000A89A8FEF86BD789484B1876084B921E0E7
:1000B0008091000190910101A0910201B091030192
:1000C0000A97A105B10519F485B1822785B98091F8
:1000D000000190910101A0910201B09103018436C9
:1000E0009105A105B10519F485B1822785B98091E3
:1000F000000190910101A0910201B0910301883E9D
:100100009340A105B105A1F685B1822785B910926A
:100110000001109201011092020110920301C8CF58
:100120001F920F920FB60F9211248F939F93AF934C
:10013000BF938091000190910101A0910201B091C3
:1001400003010196A11DB11D80930001909301014F
:10015000A0930201B0930301BF91AF919F918F9142
:0E0160000F900FBE0F901F901895F894FFCFD0
:00000001FF
