:100000000C9434000C943E000C943E000C943E0082
:100010000C943E000C943E000C943E000C943E0068
:100020000C943E000C943E000C943E000C943E0058
:100030000C943E000C943E000C943E000C943E0048
:100040000C943E000C943E000C943E000C943E0038
:100050000C943E000C943E000C943E000C943E0028
:100060000C943E000C943E0011241FBECFEFD4E050
:10007000DEBFCDBF0E944A000C9496000C94000095
:100080008AB180788AB95F9A209A0895289A08954B
:10009000289808950E9440007724739488248394BC
:1000A000912CD72CC12CA82CB92C512C612C4F99F8
:1000B000FECF872DC82DD92D07C08D2D05C08C2DC5
:1000C0000A2D1B2D01C08C2D4F9905C08111F5CF34
:1000D00021968D2DF9CF813091F30F5F1F4F0132A3
:1000E0002EE4120784F31C161D06F4F4E52CF62CFE
:1000F0000E9446008FEF92E527E08150904020401B
:10010000E1F700C000000E9448008FEF92E527E071
:10011000815090402040E1F700C000008FEFE81AC6
:10012000F80AEC16FD0621F786B1C1CFF894FFCF8F
:00000001FF
